{
  "contractName": "BurnableToken",
  "abi": [
    {
      "constant": true,
      "inputs": [],
      "name": "totalSupply",
      "outputs": [
        {
          "name": "",
          "type": "uint256"
        }
      ],
      "payable": false,
      "stateMutability": "view",
      "type": "function"
    },
    {
      "constant": true,
      "inputs": [
        {
          "name": "_owner",
          "type": "address"
        }
      ],
      "name": "balanceOf",
      "outputs": [
        {
          "name": "balance",
          "type": "uint256"
        }
      ],
      "payable": false,
      "stateMutability": "view",
      "type": "function"
    },
    {
      "constant": false,
      "inputs": [
        {
          "name": "_to",
          "type": "address"
        },
        {
          "name": "_value",
          "type": "uint256"
        }
      ],
      "name": "transfer",
      "outputs": [
        {
          "name": "",
          "type": "bool"
        }
      ],
      "payable": false,
      "stateMutability": "nonpayable",
      "type": "function"
    },
    {
      "anonymous": false,
      "inputs": [
        {
          "indexed": true,
          "name": "from",
          "type": "address"
        },
        {
          "indexed": true,
          "name": "to",
          "type": "address"
        },
        {
          "indexed": false,
          "name": "value",
          "type": "uint256"
        }
      ],
      "name": "Transfer",
      "type": "event"
    },
    {
      "constant": false,
      "inputs": [
        {
          "name": "_crowdsale",
          "type": "address"
        },
        {
          "name": "_tokens",
          "type": "uint256"
        }
      ],
      "name": "burn",
      "outputs": [],
      "payable": false,
      "stateMutability": "nonpayable",
      "type": "function"
    }
  ],
  "bytecode": "0x608060405234801561001057600080fd5b506102ea806100206000396000f3006080604052600436106100615763ffffffff7c010000000000000000000000000000000000000000000000000000000060003504166318160ddd811461006657806370a082311461008d5780639dc29fac146100ae578063a9059cbb146100d4575b600080fd5b34801561007257600080fd5b5061007b61010c565b60408051918252519081900360200190f35b34801561009957600080fd5b5061007b600160a060020a0360043516610112565b3480156100ba57600080fd5b506100d2600160a060020a036004351660243561012d565b005b3480156100e057600080fd5b506100f8600160a060020a036004351660243561019b565b604080519115158252519081900360200190f35b60005481565b600160a060020a031660009081526001602052604090205490565b600160a060020a03821660009081526001602052604090205481111561015257600080fd5b600160a060020a03821660009081526001602052604090205461017b908263ffffffff61029616565b600160a060020a0390921660009081526001602052604090209190915550565b6000600160a060020a03831615156101b257600080fd5b600160a060020a0333166000908152600160205260409020548211156101d757600080fd5b600160a060020a033316600090815260016020526040902054610200908363ffffffff61029616565b600160a060020a033381166000908152600160205260408082209390935590851681522054610235908363ffffffff6102a816565b600160a060020a038085166000818152600160209081526040918290209490945580518681529051919333909316927fddf252ad1be2c89b69c2b068fc378daa952ba7f163c4a11628f55a4df523b3ef92918290030190a350600192915050565b6000828211156102a257fe5b50900390565b6000828201838110156102b757fe5b93925050505600a165627a7a72305820427cb3fc57d4f59a611e8d9cecfa199d75efec7d480d2e199b10b4118f9370e30029",
  "source": "pragma solidity ^0.4.23;\n\nimport \"./BasicToken.sol\";\n\n\n/**\n * @title Burnable Token\n * @dev Token that can be irreversibly burned (destroyed).\n */\ncontract BurnableToken is BasicToken {\n\n\n  function burn(address _crowdsale, uint _tokens) public {\n    require(_tokens <= balances[_crowdsale]);\n    balances[_crowdsale] = balances[_crowdsale].sub(_tokens);\n  }\n}",
  "sourcePath": "/Users/maksim/Desktop/xox/xox_t/contracts/BurnableToken.sol",
  "compiler": {
    "name": "solc",
    "version": "0.4.23+commit.124ca40d.Emscripten.clang"
  },
  "schemaVersion": "2.0.0",
  "updatedAt": "2018-05-30T02:09:11.687Z"
}