{
  "contractName": "Crowdsale",
  "abi": [
    {
      "constant": true,
      "inputs": [],
      "name": "postICO",
      "outputs": [
        {
          "name": "totalSupply",
          "type": "uint256"
        },
        {
          "name": "remainderTokens",
          "type": "uint256"
        },
        {
          "name": "minInvestment",
          "type": "uint256"
        },
        {
          "name": "sumInvestment",
          "type": "uint256"
        },
        {
          "name": "duration",
          "type": "uint256"
        },
        {
          "name": "end",
          "type": "uint256"
        },
        {
          "name": "bonusLessTen",
          "type": "uint256"
        },
        {
          "name": "bonusMoreTen",
          "type": "uint256"
        },
        {
          "name": "id",
          "type": "uint256"
        },
        {
          "name": "start",
          "type": "uint256"
        }
      ],
      "payable": false,
      "stateMutability": "view",
      "type": "function"
    },
    {
      "constant": true,
      "inputs": [],
      "name": "ICO",
      "outputs": [
        {
          "name": "totalSupply",
          "type": "uint256"
        },
        {
          "name": "remainderTokens",
          "type": "uint256"
        },
        {
          "name": "minInvestment",
          "type": "uint256"
        },
        {
          "name": "sumInvestment",
          "type": "uint256"
        },
        {
          "name": "duration",
          "type": "uint256"
        },
        {
          "name": "end",
          "type": "uint256"
        },
        {
          "name": "bonusLessTen",
          "type": "uint256"
        },
        {
          "name": "bonusMoreTen",
          "type": "uint256"
        },
        {
          "name": "id",
          "type": "uint256"
        },
        {
          "name": "start",
          "type": "uint256"
        }
      ],
      "payable": false,
      "stateMutability": "view",
      "type": "function"
    },
    {
      "constant": true,
      "inputs": [],
      "name": "rate",
      "outputs": [
        {
          "name": "",
          "type": "uint256"
        }
      ],
      "payable": false,
      "stateMutability": "view",
      "type": "function"
    },
    {
      "constant": true,
      "inputs": [
        {
          "name": "",
          "type": "uint256"
        }
      ],
      "name": "investors",
      "outputs": [
        {
          "name": "",
          "type": "address"
        }
      ],
      "payable": false,
      "stateMutability": "view",
      "type": "function"
    },
    {
      "constant": true,
      "inputs": [],
      "name": "multisig",
      "outputs": [
        {
          "name": "",
          "type": "address"
        }
      ],
      "payable": false,
      "stateMutability": "view",
      "type": "function"
    },
    {
      "constant": true,
      "inputs": [],
      "name": "preICO",
      "outputs": [
        {
          "name": "totalSupply",
          "type": "uint256"
        },
        {
          "name": "remainderTokens",
          "type": "uint256"
        },
        {
          "name": "minInvestment",
          "type": "uint256"
        },
        {
          "name": "sumInvestment",
          "type": "uint256"
        },
        {
          "name": "duration",
          "type": "uint256"
        },
        {
          "name": "end",
          "type": "uint256"
        },
        {
          "name": "bonusLessTen",
          "type": "uint256"
        },
        {
          "name": "bonusMoreTen",
          "type": "uint256"
        },
        {
          "name": "id",
          "type": "uint256"
        },
        {
          "name": "start",
          "type": "uint256"
        }
      ],
      "payable": false,
      "stateMutability": "view",
      "type": "function"
    },
    {
      "constant": true,
      "inputs": [],
      "name": "owner",
      "outputs": [
        {
          "name": "",
          "type": "address"
        }
      ],
      "payable": false,
      "stateMutability": "view",
      "type": "function"
    },
    {
      "constant": true,
      "inputs": [
        {
          "name": "",
          "type": "address"
        }
      ],
      "name": "investments",
      "outputs": [
        {
          "name": "",
          "type": "uint256"
        }
      ],
      "payable": false,
      "stateMutability": "view",
      "type": "function"
    },
    {
      "constant": true,
      "inputs": [],
      "name": "countRefund",
      "outputs": [
        {
          "name": "",
          "type": "uint256"
        }
      ],
      "payable": false,
      "stateMutability": "view",
      "type": "function"
    },
    {
      "constant": true,
      "inputs": [],
      "name": "SOFT_CAP",
      "outputs": [
        {
          "name": "",
          "type": "uint256"
        }
      ],
      "payable": false,
      "stateMutability": "view",
      "type": "function"
    },
    {
      "constant": true,
      "inputs": [],
      "name": "start",
      "outputs": [
        {
          "name": "",
          "type": "uint256"
        }
      ],
      "payable": false,
      "stateMutability": "view",
      "type": "function"
    },
    {
      "constant": true,
      "inputs": [],
      "name": "requireOnce",
      "outputs": [
        {
          "name": "",
          "type": "bool"
        }
      ],
      "payable": false,
      "stateMutability": "view",
      "type": "function"
    },
    {
      "constant": true,
      "inputs": [],
      "name": "salesTokens",
      "outputs": [
        {
          "name": "",
          "type": "uint256"
        }
      ],
      "payable": false,
      "stateMutability": "view",
      "type": "function"
    },
    {
      "constant": false,
      "inputs": [
        {
          "name": "newOwner",
          "type": "address"
        }
      ],
      "name": "transferOwnership",
      "outputs": [],
      "payable": false,
      "stateMutability": "nonpayable",
      "type": "function"
    },
    {
      "constant": true,
      "inputs": [],
      "name": "token",
      "outputs": [
        {
          "name": "",
          "type": "address"
        }
      ],
      "payable": false,
      "stateMutability": "view",
      "type": "function"
    },
    {
      "inputs": [
        {
          "name": "_startPreICO",
          "type": "uint256"
        },
        {
          "name": "_startICO",
          "type": "uint256"
        },
        {
          "name": "_startPostICO",
          "type": "uint256"
        },
        {
          "name": "_reserved",
          "type": "address"
        }
      ],
      "payable": false,
      "stateMutability": "nonpayable",
      "type": "constructor"
    },
    {
      "payable": true,
      "stateMutability": "payable",
      "type": "fallback"
    },
    {
      "anonymous": false,
      "inputs": [
        {
          "indexed": true,
          "name": "addr",
          "type": "address"
        },
        {
          "indexed": false,
          "name": "amount",
          "type": "uint256"
        }
      ],
      "name": "TransferWei",
      "type": "event"
    },
    {
      "anonymous": false,
      "inputs": [
        {
          "indexed": true,
          "name": "previousOwner",
          "type": "address"
        },
        {
          "indexed": true,
          "name": "newOwner",
          "type": "address"
        }
      ],
      "name": "OwnershipTransferred",
      "type": "event"
    },
    {
      "constant": false,
      "inputs": [],
      "name": "saleTokens",
      "outputs": [],
      "payable": true,
      "stateMutability": "payable",
      "type": "function"
    },
    {
      "constant": true,
      "inputs": [
        {
          "name": "_ether",
          "type": "uint256"
        }
      ],
      "name": "calculateTokens",
      "outputs": [
        {
          "name": "",
          "type": "uint256"
        }
      ],
      "payable": false,
      "stateMutability": "view",
      "type": "function"
    },
    {
      "constant": true,
      "inputs": [
        {
          "name": "_tokens",
          "type": "uint256"
        }
      ],
      "name": "calculateTotal",
      "outputs": [
        {
          "name": "",
          "type": "uint256"
        }
      ],
      "payable": false,
      "stateMutability": "view",
      "type": "function"
    },
    {
      "constant": true,
      "inputs": [],
      "name": "returnNumberInvestors",
      "outputs": [
        {
          "name": "",
          "type": "uint256"
        }
      ],
      "payable": false,
      "stateMutability": "view",
      "type": "function"
    },
    {
      "constant": false,
      "inputs": [],
      "name": "refund",
      "outputs": [],
      "payable": false,
      "stateMutability": "nonpayable",
      "type": "function"
    },
    {
      "constant": false,
      "inputs": [
        {
          "name": "_rate",
          "type": "uint256"
        }
      ],
      "name": "setRate",
      "outputs": [],
      "payable": false,
      "stateMutability": "nonpayable",
      "type": "function"
    },
    {
      "constant": false,
      "inputs": [
        {
          "name": "_to",
          "type": "address"
        }
      ],
      "name": "setMultisig",
      "outputs": [
        {
          "name": "",
          "type": "bool"
        }
      ],
      "payable": false,
      "stateMutability": "nonpayable",
      "type": "function"
    }
  ],
  "bytecode": "0x6080604052657c8283dea8006003556006805460ff191660011790553480156200002857600080fd5b5060405160808062001a0b833981016040908152815160208301519183015160609093015160008054600160a060020a03191633600160a060020a031617905590929042841180156200009657506200009384621fa40064010000000062000b4a620003ac82021704565b83115b8015620000be5750620000bb83621fa40064010000000062000b4a620003ac82021704565b82115b1515620000ca57600080fd5b60065460ff161515620000dc57600080fd5b6006805460ff1916905560005460088054600160a060020a031916600160a060020a039092169190911790558062000113620003c3565b600160a060020a03909116815260405190819003602001906000f08015801562000141573d6000803e3d6000fd5b50600a8054600160a060020a031916600160a060020a0392909216919091179055600060058190556002819055600485905560408051610140810182526a04f68ca6d8cd91c60000008082526020820152670de0b6b3a7640000918101919091526060810191909152621fa4006080820181905260a0820190620001d5908790640100000000620003ac810262000b4a1704565b8152608c60208083019190915260a060408084018290526000606080860182905260809586018b90528651600b5586850151600c5586830151600d5586810151600e5586860151600f558684015160105560c087015160115560e0870151601255610100870151601355610120909601516014558151610140810183526a2caaf1dd9f3a1ff6000000808252948101949094526706f05b59d3b200009184019190915293820193909352621fa40091810182905291820190620002a890869064010000000062000b4a620003ac82021704565b815260006020808301829052608c604080850191909152600160608086019190915260809485019890985284516015558482015160165584810151601755848801516018558484015160195560a080860151601a5560c080870151601b5560e080880151601c5561010080890151601d5561012098890151601e558451610140810186526b02b6d4eb3e906bb8480000008082528188018190529581018890529b8c01879052968b01869052918a0185905289018490528801839052600293880184905296909301859052601f86905594909155602184905560228490556023849055602484905560258490556026939093555060279190915560285550620003d4565b600082820183811015620003bc57fe5b9392505050565b604051610a708062000f9b83390190565b610bb780620003e46000396000f3006080604052600436106101275763ffffffff7c01000000000000000000000000000000000000000000000000000000006000350416630efd2cca8114610131578063273ba6bb146101965780632c4e722e146101ab57806334fcf437146101d25780633feb5f2b146101ea5780634783c35b1461021e578063590e1ae31461023357806368a6e74b1461024857806371aa60fd1461025d57806371d119c9146102755780638da5cb5b1461028d57806396b98862146102a2578063a712022b146102c3578063b0b9603b14610127578063b652dc2f146102d8578063be9a6555146102ed578063c99aa35114610302578063d109615514610317578063d32241ce14610340578063f2fde38b14610355578063f3283fba14610376578063fc0c546a14610397575b61012f6103ac565b005b34801561013d57600080fd5b50610146610440565b604080519a8b5260208b0199909952898901979097526060890195909552608088019390935260a087019190915260c086015260e085015261010084015261012083015251908190036101400190f35b3480156101a257600080fd5b50610146610461565b3480156101b757600080fd5b506101c0610482565b60408051918252519081900360200190f35b3480156101de57600080fd5b5061012f600435610488565b3480156101f657600080fd5b506102026004356104c7565b60408051600160a060020a039092168252519081900360200190f35b34801561022a57600080fd5b506102026104ef565b34801561023f57600080fd5b5061012f6104fe565b34801561025457600080fd5b5061014661064e565b34801561026957600080fd5b506101c060043561066f565b34801561028157600080fd5b506101c06004356106a3565b34801561029957600080fd5b506102026106ba565b3480156102ae57600080fd5b506101c0600160a060020a03600435166106c9565b3480156102cf57600080fd5b506101c06106db565b3480156102e457600080fd5b506101c06106e1565b3480156102f957600080fd5b506101c06106ef565b34801561030e57600080fd5b506101c06106f5565b34801561032357600080fd5b5061032c6106fc565b604080519115158252519081900360200190f35b34801561034c57600080fd5b506101c0610705565b34801561036157600080fd5b5061012f600160a060020a036004351661070b565b34801561038257600080fd5b5061032c600160a060020a03600435166107a3565b3480156103a357600080fd5b50610202610806565b6000806000806103ba610815565b6008810154909450600214156103cf57600080fd5b60028401543410156103e057600080fd5b3492503391506103ef8361066f565b60018501549091508111610427576001840154610412908263ffffffff61086e16565b6001850155610422818484610880565b610432565b6104328484846109f9565b61043a610adc565b50505050565b601f546020546021546022546023546024546025546026546027546028548a565b601554601654601754601854601954601a54601b54601c54601d54601e548a565b60035481565b60005433600160a060020a039081169116146104a357600080fd5b600081116104b057600080fd5b6104c181600a63ffffffff610b2e16565b60035550565b60078054829081106104d557fe5b600091825260209091200154600160a060020a0316905081565b600854600160a060020a031681565b600080548190819033600160a060020a0390811691161461051e57600080fd5b601a544211801561053a575069d3c21bcecceda1000000600554105b151561054557600080fd5b60015460025461055a9163ffffffff610b4a16565b925060025491505b600754821015610647576009600060078481548110151561057f57fe5b6000918252602080832090910154600160a060020a0316835282019290925260400181205460078054919350600991839190869081106105bb57fe5b6000918252602080832090910154600160a060020a0316835282019290925260400190205560078054839081106105ee57fe5b6000918252602082200154604051600160a060020a039091169183156108fc02918491818181858888f1935050505015801561062e573d6000803e3d6000fd5b508282141561063c57610647565b600190910190610562565b5050600255565b600b54600c54600d54600e54600f546010546011546012546013546014548a565b60035460009061069d9061069184670de0b6b3a764000063ffffffff610b6016565b9063ffffffff610b2e16565b92915050565b600061069d60035483610b6090919063ffffffff16565b600054600160a060020a031681565b60096020526000908152604090205481565b60025481565b69d3c21bcecceda100000081565b60045481565b6007545b90565b60065460ff1681565b60055481565b60005433600160a060020a0390811691161461072657600080fd5b600160a060020a038116151561073b57600080fd5b60008054604051600160a060020a03808516939216917f8be0079c531659141344cd1fd0a4f28419497f9722a3daafe3b4186f6b6457e091a36000805473ffffffffffffffffffffffffffffffffffffffff1916600160a060020a0392909216919091179055565b6000805433600160a060020a039081169116146107bf57600080fd5b600160a060020a03821615156107d457600080fd5b5060088054600160a060020a03831673ffffffffffffffffffffffffffffffffffffffff199091161790556001919050565b600a54600160a060020a031681565b6010546000904210801561082b57506014544210155b156108385750600b6106f9565b601a544210801561084b5750601e544210155b15610858575060156106f9565b60285442106108695750601f6106f9565b600080fd5b60008282111561087a57fe5b50900390565b600160a060020a03811660009081526009602052604090205482908490839015156108fe57600780546001810182556000919091527fa66cc928b5edb82af9bd49922954155ab7b0942694bea4ce44661d9a8736c68801805473ffffffffffffffffffffffffffffffffffffffff1916600160a060020a0383161790555b600160a060020a038116600090815260096020526040902054610927908463ffffffff610b4a16565b600160a060020a038216600090815260096020526040902055600554610953908363ffffffff610b4a16565b600555600a54604080517fa9059cbb000000000000000000000000000000000000000000000000000000008152600160a060020a038481166004830152602482018690529151919092169163a9059cbb9160448083019260209291908290030181600087803b1580156109c557600080fd5b505af11580156109d9573d6000803e3d6000fd5b505050506040513d60208110156109ef57600080fd5b5050505050505050565b6001830180546000918290556003548592859285929091908190610a3290670de0b6b3a76400009061069190869063ffffffff610b6016565b9150610a44858363ffffffff61086e16565b9050610a51838386610880565b6000811115610ad157604080518281529051600160a060020a038616917f065637400b2c85c63fd493210aa5f6ccfbe7e541a1ff267467e53797155f172a919081900360200190a2604051600160a060020a0385169082156108fc029083906000818181858888f19350505050158015610acf573d6000803e3d6000fd5b505b505050505050505050565b60055469d3c21bcecceda100000011610b2c57600854604051600160a060020a039182169130163180156108fc02916000818181858888f19350505050158015610b2a573d6000803e3d6000fd5b505b565b6000808284811515610b3c57fe5b0490508091505b5092915050565b600082820183811015610b5957fe5b9392505050565b600080831515610b735760009150610b43565b50828202828482811515610b8357fe5b0414610b5957fe00a165627a7a72305820a620e55e1520a947491394b2766d2d3d60fbfca6f2a96c0c45865ff236b2ee730029608060405234801561001057600080fd5b50604051602080610a708339810160405251600160a060020a038116151561003757600080fd5b600160a060020a0333811660008181526001602090815260408083206b02e87669c308736a04000000815594861683528083206a52b7d2dcc80cd2e4000000905583835293548451908152935192939192600080516020610a508339815191529281900390910190a3600160a060020a03811660008181526001602090815260408083205481519081529051600080516020610a50833981519152929181900390910190a350610964806100ec6000396000f3006080604052600436106100c45763ffffffff7c010000000000000000000000000000000000000000000000000000000060003504166306fdde0381146100c9578063095ea7b31461015357806318160ddd1461018b57806323b872dd146101b25780632ff2e9dc146101dc578063313ce567146101f157806342966c681461021f578063661884631461023957806370a082311461025d57806395d89b411461027e578063a9059cbb14610293578063d73dd623146102b7578063dd62ed3e146102db575b600080fd5b3480156100d557600080fd5b506100de610302565b6040805160208082528351818301528351919283929083019185019080838360005b83811015610118578181015183820152602001610100565b50505050905090810190601f1680156101455780820380516001836020036101000a031916815260200191505b509250505060405180910390f35b34801561015f57600080fd5b50610177600160a060020a0360043516602435610339565b604080519115158252519081900360200190f35b34801561019757600080fd5b506101a06103a3565b60408051918252519081900360200190f35b3480156101be57600080fd5b50610177600160a060020a03600435811690602435166044356103a9565b3480156101e857600080fd5b506101a061052b565b3480156101fd57600080fd5b5061020661053b565b6040805163ffffffff9092168252519081900360200190f35b34801561022b57600080fd5b50610237600435610540565b005b34801561024557600080fd5b50610177600160a060020a03600435166024356105fd565b34801561026957600080fd5b506101a0600160a060020a03600435166106f6565b34801561028a57600080fd5b506100de610711565b34801561029f57600080fd5b50610177600160a060020a0360043516602435610748565b3480156102c357600080fd5b50610177600160a060020a0360043516602435610843565b3480156102e757600080fd5b506101a0600160a060020a03600435811690602435166108e5565b60408051808201909152600981527f584f5820546f6b656e0000000000000000000000000000000000000000000000602082015281565b600160a060020a03338116600081815260026020908152604080832094871680845294825280832086905580518681529051929493927f8c5be1e5ebec7d5bd14f71427d1e84f3dd0314c0f7b2291e5b200ac8c7c3b925929181900390910190a350600192915050565b60005481565b6000600160a060020a03831615156103c057600080fd5b600160a060020a0384166000908152600160205260409020548211156103e557600080fd5b600160a060020a038085166000908152600260209081526040808320339094168352929052205482111561041857600080fd5b600160a060020a038416600090815260016020526040902054610441908363ffffffff61091016565b600160a060020a038086166000908152600160205260408082209390935590851681522054610476908363ffffffff61092216565b600160a060020a038085166000908152600160209081526040808320949094558783168252600281528382203390931682529190915220546104be908363ffffffff61091016565b600160a060020a038086166000818152600260209081526040808320338616845282529182902094909455805186815290519287169391927fddf252ad1be2c89b69c2b068fc378daa952ba7f163c4a11628f55a4df523b3ef929181900390910190a35060019392505050565b6b033b2e3c9fd0803ce800000081565b601281565b600160a060020a03331660009081526001602052604081205482111561056557600080fd5b5033600160a060020a03811660009081526001602052604090205461058a9083610910565b600160a060020a038216600090815260016020526040812091909155546105b7908363ffffffff61091016565b600055604080518381529051600160a060020a038316917fcc16f5dbb4873280815c1ee09dbd06736cffcc184412cf7a71a0fdb75d397ca5919081900360200190a25050565b600160a060020a0333811660009081526002602090815260408083209386168352929052908120548083111561065a57600160a060020a033381166000908152600260209081526040808320938816835292905290812055610691565b61066a818463ffffffff61091016565b600160a060020a033381166000908152600260209081526040808320938916835292905220555b600160a060020a0333811660008181526002602090815260408083209489168084529482529182902054825190815291517f8c5be1e5ebec7d5bd14f71427d1e84f3dd0314c0f7b2291e5b200ac8c7c3b9259281900390910190a35060019392505050565b600160a060020a031660009081526001602052604090205490565b60408051808201909152600381527f584f580000000000000000000000000000000000000000000000000000000000602082015281565b6000600160a060020a038316151561075f57600080fd5b600160a060020a03331660009081526001602052604090205482111561078457600080fd5b600160a060020a0333166000908152600160205260409020546107ad908363ffffffff61091016565b600160a060020a0333811660009081526001602052604080822093909355908516815220546107e2908363ffffffff61092216565b600160a060020a038085166000818152600160209081526040918290209490945580518681529051919333909316927fddf252ad1be2c89b69c2b068fc378daa952ba7f163c4a11628f55a4df523b3ef92918290030190a350600192915050565b600160a060020a03338116600090815260026020908152604080832093861683529290529081205461087b908363ffffffff61092216565b600160a060020a0333811660008181526002602090815260408083209489168084529482529182902085905581519485529051929391927f8c5be1e5ebec7d5bd14f71427d1e84f3dd0314c0f7b2291e5b200ac8c7c3b9259281900390910190a350600192915050565b600160a060020a03918216600090815260026020908152604080832093909416825291909152205490565b60008282111561091c57fe5b50900390565b60008282018381101561093157fe5b93925050505600a165627a7a723058202c1e0d4e64a6aa4d8ec0218846a3b425a6d610f0b38b3cff1eb8f46d2473cb590029ddf252ad1be2c89b69c2b068fc378daa952ba7f163c4a11628f55a4df523b3ef",
  "source": "pragma solidity ^0.4.23;\n\nimport './SafeMath.sol';\nimport './XOXToken.sol';\nimport './Ownable.sol';\n\ncontract Crowdsale is Ownable {\n  using SafeMath for uint;\n\n  uint constant public SOFT_CAP = 1E24;\n  uint constant private PAGINATION_NUM = 100;\n  uint constant private DECIMALS = 1E18;\n  \n  uint private paginationNum;\n\n  uint public countRefund;\n  uint public rate = 136900000000000;\n  uint public start;\n  uint public salesTokens;\n  \n  bool public requireOnce = true;\n\n  address[] public investors;\n  address public multisig;\n\n  mapping(address => uint) public investments;\n  \n  XOXToken public token;\n\n  struct Stage {\n    uint totalSupply;\n    uint remainderTokens;\n    uint minInvestment;\n    uint sumInvestment;\n    uint duration;\n    uint end;\n    uint bonusLessTen;\n    uint bonusMoreTen;\n    uint id;\n    uint start;\n  }\n\n  Stage public preICO;\n  Stage public ICO;\n  Stage public postICO;\n\n\n  event TransferWei(address indexed addr, uint amount);\n\n  constructor(uint _startPreICO, uint _startICO, uint _startPostICO, address _reserved) public {\n    require(\n      _startPreICO > now &&\n      _startICO > _startPreICO.add(24 days) &&\n      _startPostICO > _startICO.add(24 days)\n    );\n    require(requireOnce);\n\n    requireOnce = false;\n    multisig = owner;\n    token = new XOXToken(_reserved);\n    salesTokens = 0;\n    countRefund = 0;\n    start = _startPreICO;\n\n    preICO = Stage({\n      totalSupply: 6E24,\n      remainderTokens: 6E24,\n      minInvestment: 1 ether,\n      sumInvestment: 0,\n      duration: 24 days,\n      end: start.add(24 days),\n      bonusLessTen: 140,\n      bonusMoreTen: 160,\n      id: 0,\n      start: _startPreICO\n    });\n\n    ICO = Stage({\n      totalSupply: 54E24,\n      remainderTokens: 54E24,\n      minInvestment: 0.5 ether,\n      sumInvestment: 0,\n      duration: 24 days,\n      end: _startICO.add(24 days),\n      bonusLessTen: 0,\n      bonusMoreTen: 140,\n      id: 1,\n      start: _startICO\n    });\n\n    postICO = Stage({\n      totalSupply: 840E24,\n      remainderTokens: 840E24,\n      minInvestment: 0,\n      sumInvestment: 0,\n      duration: 0,\n      end: 0,\n      bonusLessTen: 0,\n      bonusMoreTen: 0,\n      id: 2,\n      start: _startPostICO\n    });\n  }\n  \n  \n  function() public payable {\n    saleTokens();\n  }\n  \n\n  function saleTokens() public payable {\n    Stage storage stageICO = getStage();\n    require(stageICO.id != 2);\n    require(msg.value >= stageICO.minInvestment);\n    \n    uint ethVal = msg.value;\n    address sender = msg.sender;\n    uint tokensValue = calculateTokens(ethVal);\n    \n    if (tokensValue <= stageICO.remainderTokens) {\n      stageICO.remainderTokens = stageICO.remainderTokens.sub(tokensValue);\n\n      addStatisticsAndCalculateVal(tokensValue, ethVal, sender);\n    } else {\n        calculateTokensLessAvailable(stageICO, ethVal, sender);\n    }\n    withDrawal();\n  }\n\n\n  function getEthForBackend(uint _eth, address _sender) internal {\n    require(_eth > 0);\n    require(_sender != address(0));\n    \n    uint ethVal = _eth;\n    address sender = _sender;\n    uint tokensValue = calculateTokens(ethVal);\n    \n    if (tokensValue <= postICO.remainderTokens) {\n      postICO.remainderTokens = postICO.remainderTokens.sub(tokensValue);\n\n      addStatisticsAndCalculateVal(tokensValue, ethVal, sender);\n    } else {\n        calculateTokensLessAvailable(postICO, ethVal, sender);\n    }\n    withDrawal();\n  }\n  \n  \n  function calculateTokensLessAvailable(Stage storage _stageNow, uint _ethValue, address _sender) internal {\n      Stage storage stage = _stageNow;\n      uint ethVal = _ethValue;\n      address sender = _sender;\n      uint tokensValue = stage.remainderTokens;\n      stage.remainderTokens = 0;\n      uint availableWei = tokensValue.mul(rate).div(DECIMALS);\n      uint remainderWei = ethVal.sub(availableWei);\n\n      addStatisticsAndCalculateVal(tokensValue, availableWei, sender);\n\n      if (remainderWei > 0) {\n        emit TransferWei(sender, remainderWei);\n        sender.transfer(remainderWei);\n      }\n  }\n\n  function addStatisticsAndCalculateVal(uint _tokensVal, uint _ethVal, address _sender) internal {\n    uint ethVal = _ethVal;\n    uint tokensVal = _tokensVal;\n    address sender = _sender;\n    \n    if (investments[sender] == 0) investors.push(sender);\n      investments[sender] = investments[sender].add(ethVal);\n      salesTokens = salesTokens.add(tokensVal);\n      token.transfer(sender, tokensVal);\n  }\n\n\n  function getStage() internal view returns(Stage storage) {\n    if (now < preICO.end && now >= preICO.start) {\n        return preICO;\n    } else if (ICO.end > now && now >= ICO.start) {\n        return ICO;\n    } else if (now >= postICO.start) {\n        return postICO;\n    } else {\n        revert();\n    }\n  }\n\n\n  function withDrawal() internal {\n    if(salesTokens >= SOFT_CAP) {\n      multisig.transfer(address(this).balance);\n    }\n  }\n\n\n  function calculateTokens(uint _ether) public view returns(uint) {\n    return _ether.mul(DECIMALS).div(rate);\n  }\n    \n\n  function calculateTotal(uint _tokens) public view returns (uint) {\n    return _tokens.mul(rate);\n  }\n  \n  \n  function returnNumberInvestors() public view returns(uint) {\n    return investors.length;\n  }\n    \n\n  function refund() public onlyOwner {\n    require(ICO.end < now && salesTokens < SOFT_CAP);\n    uint limit = countRefund.add(paginationNum);\n\n    for(uint i = countRefund; i < investors.length; i++) {\n      uint value = investments[investors[i]];\n      investments[investors[i]] = 0;\n      investors[i].transfer(value);\n      if (i == limit) break;\n    }\n    countRefund = limit;\n  }\n  \n\n  function setRate(uint _rate) public onlyOwner {\n    require(_rate > 0);\n    rate = _rate.div(10);\n  }\n\n\n  function setMultisig(address _to) public onlyOwner returns(bool) {\n    require(_to != address(0));\n    multisig = _to;\n    return true;\n  }\n    \n}\n",
  "sourcePath": "/Users/maksim/Desktop/xox/xox_t/contracts/Crowdsale.sol",
  "compiler": {
    "name": "solc",
    "version": "0.4.23+commit.124ca40d.Emscripten.clang"
  },
  "schemaVersion": "2.0.0",
  "updatedAt": "2018-05-21T08:13:29.357Z"
}