{
  "contractName": "Crowdsale",
  "abi": [
    {
      "constant": true,
      "inputs": [],
      "name": "postICO",
      "outputs": [
        {
          "name": "id",
          "type": "uint256"
        },
        {
          "name": "totalSupply",
          "type": "uint256"
        },
        {
          "name": "remainderTokens",
          "type": "uint256"
        },
        {
          "name": "minInvestment",
          "type": "uint256"
        },
        {
          "name": "sumInvestment",
          "type": "uint256"
        },
        {
          "name": "end",
          "type": "uint256"
        },
        {
          "name": "bonusLessTen",
          "type": "uint256"
        },
        {
          "name": "bonusMoreTen",
          "type": "uint256"
        },
        {
          "name": "start",
          "type": "uint256"
        }
      ],
      "payable": false,
      "stateMutability": "view",
      "type": "function"
    },
    {
      "constant": true,
      "inputs": [],
      "name": "paginationNum",
      "outputs": [
        {
          "name": "",
          "type": "uint256"
        }
      ],
      "payable": false,
      "stateMutability": "view",
      "type": "function"
    },
    {
      "constant": true,
      "inputs": [],
      "name": "ICO",
      "outputs": [
        {
          "name": "id",
          "type": "uint256"
        },
        {
          "name": "totalSupply",
          "type": "uint256"
        },
        {
          "name": "remainderTokens",
          "type": "uint256"
        },
        {
          "name": "minInvestment",
          "type": "uint256"
        },
        {
          "name": "sumInvestment",
          "type": "uint256"
        },
        {
          "name": "end",
          "type": "uint256"
        },
        {
          "name": "bonusLessTen",
          "type": "uint256"
        },
        {
          "name": "bonusMoreTen",
          "type": "uint256"
        },
        {
          "name": "start",
          "type": "uint256"
        }
      ],
      "payable": false,
      "stateMutability": "view",
      "type": "function"
    },
    {
      "constant": true,
      "inputs": [],
      "name": "rate",
      "outputs": [
        {
          "name": "",
          "type": "uint256"
        }
      ],
      "payable": false,
      "stateMutability": "view",
      "type": "function"
    },
    {
      "constant": true,
      "inputs": [
        {
          "name": "",
          "type": "uint256"
        }
      ],
      "name": "investors",
      "outputs": [
        {
          "name": "",
          "type": "address"
        }
      ],
      "payable": false,
      "stateMutability": "view",
      "type": "function"
    },
    {
      "constant": true,
      "inputs": [],
      "name": "multisig",
      "outputs": [
        {
          "name": "",
          "type": "address"
        }
      ],
      "payable": false,
      "stateMutability": "view",
      "type": "function"
    },
    {
      "constant": true,
      "inputs": [],
      "name": "preICO",
      "outputs": [
        {
          "name": "id",
          "type": "uint256"
        },
        {
          "name": "totalSupply",
          "type": "uint256"
        },
        {
          "name": "remainderTokens",
          "type": "uint256"
        },
        {
          "name": "minInvestment",
          "type": "uint256"
        },
        {
          "name": "sumInvestment",
          "type": "uint256"
        },
        {
          "name": "end",
          "type": "uint256"
        },
        {
          "name": "bonusLessTen",
          "type": "uint256"
        },
        {
          "name": "bonusMoreTen",
          "type": "uint256"
        },
        {
          "name": "start",
          "type": "uint256"
        }
      ],
      "payable": false,
      "stateMutability": "view",
      "type": "function"
    },
    {
      "constant": true,
      "inputs": [],
      "name": "owner",
      "outputs": [
        {
          "name": "",
          "type": "address"
        }
      ],
      "payable": false,
      "stateMutability": "view",
      "type": "function"
    },
    {
      "constant": true,
      "inputs": [
        {
          "name": "",
          "type": "address"
        }
      ],
      "name": "investments",
      "outputs": [
        {
          "name": "",
          "type": "uint256"
        }
      ],
      "payable": false,
      "stateMutability": "view",
      "type": "function"
    },
    {
      "constant": true,
      "inputs": [],
      "name": "countRefund",
      "outputs": [
        {
          "name": "",
          "type": "uint256"
        }
      ],
      "payable": false,
      "stateMutability": "view",
      "type": "function"
    },
    {
      "constant": true,
      "inputs": [],
      "name": "SOFT_CAP",
      "outputs": [
        {
          "name": "",
          "type": "uint256"
        }
      ],
      "payable": false,
      "stateMutability": "view",
      "type": "function"
    },
    {
      "constant": true,
      "inputs": [],
      "name": "start",
      "outputs": [
        {
          "name": "",
          "type": "uint256"
        }
      ],
      "payable": false,
      "stateMutability": "view",
      "type": "function"
    },
    {
      "constant": true,
      "inputs": [],
      "name": "proxyMultisig",
      "outputs": [
        {
          "name": "",
          "type": "address"
        }
      ],
      "payable": false,
      "stateMutability": "view",
      "type": "function"
    },
    {
      "constant": true,
      "inputs": [],
      "name": "requireOnce",
      "outputs": [
        {
          "name": "",
          "type": "bool"
        }
      ],
      "payable": false,
      "stateMutability": "view",
      "type": "function"
    },
    {
      "constant": true,
      "inputs": [],
      "name": "salesTokens",
      "outputs": [
        {
          "name": "",
          "type": "uint256"
        }
      ],
      "payable": false,
      "stateMutability": "view",
      "type": "function"
    },
    {
      "constant": false,
      "inputs": [
        {
          "name": "newOwner",
          "type": "address"
        }
      ],
      "name": "transferOwnership",
      "outputs": [],
      "payable": false,
      "stateMutability": "nonpayable",
      "type": "function"
    },
    {
      "constant": true,
      "inputs": [],
      "name": "token",
      "outputs": [
        {
          "name": "",
          "type": "address"
        }
      ],
      "payable": false,
      "stateMutability": "view",
      "type": "function"
    },
    {
      "inputs": [
        {
          "name": "_startPreICO",
          "type": "uint256"
        },
        {
          "name": "_startICO",
          "type": "uint256"
        },
        {
          "name": "_startPostICO",
          "type": "uint256"
        },
        {
          "name": "_reserved",
          "type": "address"
        }
      ],
      "payable": false,
      "stateMutability": "nonpayable",
      "type": "constructor"
    },
    {
      "payable": true,
      "stateMutability": "payable",
      "type": "fallback"
    },
    {
      "anonymous": false,
      "inputs": [
        {
          "indexed": true,
          "name": "addr",
          "type": "address"
        },
        {
          "indexed": false,
          "name": "amount",
          "type": "uint256"
        }
      ],
      "name": "TransferWei",
      "type": "event"
    },
    {
      "anonymous": false,
      "inputs": [
        {
          "indexed": true,
          "name": "previousOwner",
          "type": "address"
        },
        {
          "indexed": true,
          "name": "newOwner",
          "type": "address"
        }
      ],
      "name": "OwnershipTransferred",
      "type": "event"
    },
    {
      "constant": false,
      "inputs": [],
      "name": "saleTokens",
      "outputs": [],
      "payable": true,
      "stateMutability": "payable",
      "type": "function"
    },
    {
      "constant": false,
      "inputs": [
        {
          "name": "_btc",
          "type": "uint256"
        },
        {
          "name": "_sender",
          "type": "address"
        }
      ],
      "name": "getValueForBackend",
      "outputs": [
        {
          "name": "",
          "type": "uint256"
        }
      ],
      "payable": false,
      "stateMutability": "nonpayable",
      "type": "function"
    },
    {
      "constant": false,
      "inputs": [],
      "name": "burnTokens",
      "outputs": [],
      "payable": false,
      "stateMutability": "nonpayable",
      "type": "function"
    },
    {
      "constant": true,
      "inputs": [
        {
          "name": "_ether",
          "type": "uint256"
        }
      ],
      "name": "calculateTokens",
      "outputs": [
        {
          "name": "",
          "type": "uint256"
        }
      ],
      "payable": false,
      "stateMutability": "view",
      "type": "function"
    },
    {
      "constant": true,
      "inputs": [
        {
          "name": "_tokens",
          "type": "uint256"
        }
      ],
      "name": "calculateTotal",
      "outputs": [
        {
          "name": "",
          "type": "uint256"
        }
      ],
      "payable": false,
      "stateMutability": "view",
      "type": "function"
    },
    {
      "constant": true,
      "inputs": [],
      "name": "returnNumberInvestors",
      "outputs": [
        {
          "name": "",
          "type": "uint256"
        }
      ],
      "payable": false,
      "stateMutability": "view",
      "type": "function"
    },
    {
      "constant": false,
      "inputs": [],
      "name": "refund",
      "outputs": [],
      "payable": false,
      "stateMutability": "nonpayable",
      "type": "function"
    },
    {
      "constant": false,
      "inputs": [
        {
          "name": "_rate",
          "type": "uint256"
        }
      ],
      "name": "setRate",
      "outputs": [],
      "payable": false,
      "stateMutability": "nonpayable",
      "type": "function"
    },
    {
      "constant": false,
      "inputs": [
        {
          "name": "_to",
          "type": "address"
        }
      ],
      "name": "setMultisig",
      "outputs": [
        {
          "name": "",
          "type": "bool"
        }
      ],
      "payable": false,
      "stateMutability": "nonpayable",
      "type": "function"
    },
    {
      "constant": false,
      "inputs": [
        {
          "name": "_startPreICO",
          "type": "uint256"
        },
        {
          "name": "_startICO",
          "type": "uint256"
        },
        {
          "name": "_startPostICO",
          "type": "uint256"
        }
      ],
      "name": "setDate",
      "outputs": [],
      "payable": false,
      "stateMutability": "nonpayable",
      "type": "function"
    },
    {
      "constant": false,
      "inputs": [
        {
          "name": "_to",
          "type": "address"
        }
      ],
      "name": "setProxyMultisig",
      "outputs": [
        {
          "name": "",
          "type": "bool"
        }
      ],
      "payable": false,
      "stateMutability": "nonpayable",
      "type": "function"
    }
  ],
  "bytecode": "0x608060405260646001908155657c8283dea8006003556006805460ff191690911790553480156200002f57600080fd5b5060405160808062001e5b833981016040908152815160208301519183015160609093015160008054600160a060020a03191633600160a060020a031617905590929042841180156200009d57506200009a846224ea0064010000000062000ffa6200037482021704565b83115b8015620000c55750620000c2836224ea0064010000000062000ffa6200037482021704565b82115b1515620000d157600080fd5b60065460ff161515620000e357600080fd5b6006805460ff1916905560005460088054600160a060020a031916600160a060020a03909216919091179055806200011a6200038b565b600160a060020a03909116815260405190819003602001906000f08015801562000148573d6000803e3d6000fd5b50600b8054600160a060020a031916600160a060020a03929092169190911790556004849055604080516101208101825260008082526a04f68ca6d8cd91c60000006020830181905292820192909252670de0b6b3a76400006060820152608081019190915260a08101620001cf866224ea0064010000000062000374810262000ffa1704565b8152608c60208083019190915260a0604080840182905260609384018990528451600c5584830151600d5584810151600e5584840151600f556080808601516010558583015160115560c086015160125560e086015160135561010090950151601455805161012081018252600181526a2caaf1dd9f3a1ff6000000938101849052908101929092526706f05b59d3b2000092820192909252600092810192909252810162000290856224ea0064010000000062000ffa6200037482021704565b815260006020808301829052608c604080850191909152606093840197909752835160155583810151601655838701516017558383015160185560808085015160195560a080860151601a5560c080870151601b5560e080880151601c5561010097880151601d558a5161012081018c5260028082526b02b6d4eb3e906bb8480000008288018190529c82018d905297810187905293840186905291830185905282018490528101839052909301859052601e91909155601f859055939055506021829055602282905560238290556024829055602591909155602655506200039c565b6000828201838110156200038457fe5b9392505050565b604051610a2d806200142e83390190565b61108280620003ac6000396000f3006080604052600436106101695763ffffffff7c010000000000000000000000000000000000000000000000000000000060003504166308003f7881146101735780630efd2cca1461018857806326e52e99146101e4578063273ba6bb1461020b57806328760e60146102205780632c4e722e1461023e57806334fcf437146102535780633feb5f2b1461026b5780634783c35b1461029f578063590e1ae3146102b457806368a6e74b146102c957806371aa60fd146102de57806371d119c9146102f65780637b04b3031461030e5780638da5cb5b1461033257806396b9886214610347578063a712022b14610368578063ae4306961461037d578063b0b9603b14610169578063b652dc2f146103b2578063be9a6555146103c7578063c99aa351146103dc578063d0f2bc10146103f1578063d109615514610406578063d32241ce1461041b578063f2fde38b14610430578063f3283fba14610451578063fc0c546a14610472575b610171610487565b005b34801561017f57600080fd5b5061017161051e565b34801561019457600080fd5b5061019d610603565b60408051998a5260208a0198909852888801969096526060880194909452608087019290925260a086015260c085015260e084015261010083015251908190036101200190f35b3480156101f057600080fd5b506101f9610621565b60408051918252519081900360200190f35b34801561021757600080fd5b5061019d610627565b34801561022c57600080fd5b50610171600435602435604435610645565b34801561024a57600080fd5b506101f961067c565b34801561025f57600080fd5b50610171600435610682565b34801561027757600080fd5b506102836004356106c1565b60408051600160a060020a039092168252519081900360200190f35b3480156102ab57600080fd5b506102836106e9565b3480156102c057600080fd5b506101716106f8565b3480156102d557600080fd5b5061019d610863565b3480156102ea57600080fd5b506101f9600435610881565b34801561030257600080fd5b506101f96004356108b5565b34801561031a57600080fd5b506101f9600435600160a060020a03602435166108cc565b34801561033e57600080fd5b50610283610a5b565b34801561035357600080fd5b506101f9600160a060020a0360043516610a6a565b34801561037457600080fd5b506101f9610a7c565b34801561038957600080fd5b5061039e600160a060020a0360043516610a82565b604080519115158252519081900360200190f35b3480156103be57600080fd5b506101f9610ae5565b3480156103d357600080fd5b506101f9610af3565b3480156103e857600080fd5b506101f9610af9565b3480156103fd57600080fd5b50610283610b00565b34801561041257600080fd5b5061039e610b0f565b34801561042757600080fd5b506101f9610b18565b34801561043c57600080fd5b50610171600160a060020a0360043516610b1e565b34801561045d57600080fd5b5061039e600160a060020a0360043516610bb6565b34801561047e57600080fd5b50610283610c19565b6000806000610494610c28565b8054909350600214156104a657600080fd5b60038301543410156104b757600080fd5b6104c034610881565b60028401549092508211610506576104d9348484610c81565b60028401549091506104f1908263ffffffff610d4616565b6002840155610501813433610d58565b610511565b610511833433610ec1565b610519610fa8565b505050565b6000805433600160a060020a039081169116148061054a575060095433600160a060020a039081169116145b151561055557600080fd5b601a54421161056357600080fd5b601754600e546105789163ffffffff610ffa16565b600b54604080517f9dc29fac000000000000000000000000000000000000000000000000000000008152600160a060020a033081166004830152602482018590529151939450911691639dc29fac9160448082019260009290919082900301818387803b1580156105e857600080fd5b505af11580156105fc573d6000803e3d6000fd5b5050505050565b601e54601f5460205460215460225460235460245460255460265489565b60015481565b601554601654601754601854601954601a54601b54601c54601d5489565b60005433600160a060020a0390811691161461066057600080fd5b600454421061066e57600080fd5b601492909255601d55602655565b60035481565b60005433600160a060020a0390811691161461069d57600080fd5b600081116106aa57600080fd5b6106bb81600a63ffffffff61101416565b60035550565b60078054829081106106cf57fe5b600091825260209091200154600160a060020a0316905081565b600854600160a060020a031681565b600080548190819033600160a060020a0390811691161480610728575060095433600160a060020a039081169116145b151561073357600080fd5b601a544211801561074f575069d3c21bcecceda1000000600554105b151561075a57600080fd5b60015460025461076f9163ffffffff610ffa16565b925060025491505b60075482101561085c57600a600060078481548110151561079457fe5b6000918252602080832090910154600160a060020a0316835282019290925260400181205460078054919350600a91839190869081106107d057fe5b6000918252602080832090910154600160a060020a03168352820192909252604001902055600780548390811061080357fe5b6000918252602082200154604051600160a060020a039091169183156108fc02918491818181858888f19350505050158015610843573d6000803e3d6000fd5b50828214156108515761085c565b600190910190610777565b5050600255565b600c54600d54600e54600f5460105460115460125460135460145489565b6003546000906108af906108a384670de0b6b3a764000063ffffffff61102b16565b9063ffffffff61101416565b92915050565b60006108af6003548361102b90919063ffffffff16565b60008054819081908190819033600160a060020a0390811691161480610900575060095433600160a060020a039081169116145b151561090b57600080fd5b6000871161091857600080fd5b600160a060020a038616151561092d57600080fd5b601a54421161093b57600080fd5b61094487610881565b602054909450841161096f57602054610963908563ffffffff610d4616565b602055600092506109b5565b60208054600090915560035490945061099d90670de0b6b3a7640000906108a390879063ffffffff61102b16565b91506109af878363ffffffff610d4616565b90508092505b600b54604080517fa9059cbb000000000000000000000000000000000000000000000000000000008152600160a060020a038981166004830152602482018890529151919092169163a9059cbb9160448083019260209291908290030181600087803b158015610a2457600080fd5b505af1158015610a38573d6000803e3d6000fd5b505050506040513d6020811015610a4e57600080fd5b5092979650505050505050565b600054600160a060020a031681565b600a6020526000908152604090205481565b60025481565b6000805433600160a060020a03908116911614610a9e57600080fd5b600160a060020a0382161515610ab357600080fd5b5060098054600160a060020a03831673ffffffffffffffffffffffffffffffffffffffff199091161790556001919050565b69d3c21bcecceda100000081565b60045481565b6007545b90565b600954600160a060020a031681565b60065460ff1681565b60055481565b60005433600160a060020a03908116911614610b3957600080fd5b600160a060020a0381161515610b4e57600080fd5b60008054604051600160a060020a03808516939216917f8be0079c531659141344cd1fd0a4f28419497f9722a3daafe3b4186f6b6457e091a36000805473ffffffffffffffffffffffffffffffffffffffff1916600160a060020a0392909216919091179055565b6000805433600160a060020a03908116911614610bd257600080fd5b600160a060020a0382161515610be757600080fd5b5060088054600160a060020a03831673ffffffffffffffffffffffffffffffffffffffff199091161790556001919050565b600b54600160a060020a031681565b60115460009042108015610c3e57506014544210155b15610c4b5750600c610afd565b601a5442108015610c5e5750601d544210155b15610c6b57506015610afd565b6026544210610c7c5750601e610afd565b600080fd5b6000808080610c9e87670de0b6b3a764000063ffffffff61101416565b86549093508592508691501515610d0757600a831015610cdb57610cd460646108a383600601548561102b90919063ffffffff16565b9150610d02565b600a8310610d0257610cff60646108a383600701548561102b90919063ffffffff16565b91505b610d3c565b600a831015610d1557610d3c565b600a8310610d3c57610d3960646108a383600701548561102b90919063ffffffff16565b91505b5095945050505050565b600082821115610d5257fe5b50900390565b600160a060020a0381166000908152600a60205260409020541515610dd057600780546001810182556000919091527fa66cc928b5edb82af9bd49922954155ab7b0942694bea4ce44661d9a8736c68801805473ffffffffffffffffffffffffffffffffffffffff1916600160a060020a0383161790555b600160a060020a0381166000908152600a6020526040902054610df9908363ffffffff610ffa16565b600160a060020a0382166000908152600a6020526040902055600554610e25908463ffffffff610ffa16565b600555600b54604080517fa9059cbb000000000000000000000000000000000000000000000000000000008152600160a060020a038481166004830152602482018790529151919092169163a9059cbb9160448083019260209291908290030181600087803b158015610e9757600080fd5b505af1158015610eab573d6000803e3d6000fd5b505050506040513d60208110156105fc57600080fd5b60028301805460009182905584918080610edc348686610c81565b9250610eff670de0b6b3a76400006108a36003548661102b90919063ffffffff16565b9150610f11878363ffffffff610d4616565b9050610f1e838388610d58565b6000811115610f9e57604080518281529051600160a060020a038816917f065637400b2c85c63fd493210aa5f6ccfbe7e541a1ff267467e53797155f172a919081900360200190a2604051600160a060020a0387169082156108fc029083906000818181858888f19350505050158015610f9c573d6000803e3d6000fd5b505b5050505050505050565b60055469d3c21bcecceda100000011610ff857600854604051600160a060020a039182169130163180156108fc02916000818181858888f19350505050158015610ff6573d6000803e3d6000fd5b505b565b60008282018381101561100957fe5b8091505b5092915050565b600080828481151561102257fe5b04949350505050565b60008083151561103e576000915061100d565b5082820282848281151561104e57fe5b041461100957fe00a165627a7a72305820cc1f7f96b872bd01d6e9b94830d26e3895ec953b2b527d8f58f50e2bc52e271f0029608060405234801561001057600080fd5b50604051602080610a2d8339810160405251600160a060020a038116151561003757600080fd5b600160a060020a0333811660008181526001602090815260408083206b02e87669c308736a04000000815594861683528083206a52b7d2dcc80cd2e4000000905583835293548451908152935192939192600080516020610a0d8339815191529281900390910190a3600160a060020a03811660008181526001602090815260408083205481519081529051600080516020610a0d833981519152929181900390910190a350610921806100ec6000396000f3006080604052600436106100c45763ffffffff7c010000000000000000000000000000000000000000000000000000000060003504166306fdde0381146100c9578063095ea7b31461015357806318160ddd1461018b57806323b872dd146101b25780632ff2e9dc146101dc578063313ce567146101f1578063661884631461021f57806370a082311461024357806395d89b41146102645780639dc29fac14610279578063a9059cbb1461029f578063d73dd623146102c3578063dd62ed3e146102e7575b600080fd5b3480156100d557600080fd5b506100de61030e565b6040805160208082528351818301528351919283929083019185019080838360005b83811015610118578181015183820152602001610100565b50505050905090810190601f1680156101455780820380516001836020036101000a031916815260200191505b509250505060405180910390f35b34801561015f57600080fd5b50610177600160a060020a0360043516602435610345565b604080519115158252519081900360200190f35b34801561019757600080fd5b506101a06103af565b60408051918252519081900360200190f35b3480156101be57600080fd5b50610177600160a060020a03600435811690602435166044356103b5565b3480156101e857600080fd5b506101a0610537565b3480156101fd57600080fd5b50610206610547565b6040805163ffffffff9092168252519081900360200190f35b34801561022b57600080fd5b50610177600160a060020a036004351660243561054c565b34801561024f57600080fd5b506101a0600160a060020a0360043516610645565b34801561027057600080fd5b506100de610660565b34801561028557600080fd5b5061029d600160a060020a0360043516602435610697565b005b3480156102ab57600080fd5b50610177600160a060020a0360043516602435610705565b3480156102cf57600080fd5b50610177600160a060020a0360043516602435610800565b3480156102f357600080fd5b506101a0600160a060020a03600435811690602435166108a2565b60408051808201909152600981527f584f5820546f6b656e0000000000000000000000000000000000000000000000602082015281565b600160a060020a03338116600081815260026020908152604080832094871680845294825280832086905580518681529051929493927f8c5be1e5ebec7d5bd14f71427d1e84f3dd0314c0f7b2291e5b200ac8c7c3b925929181900390910190a350600192915050565b60005481565b6000600160a060020a03831615156103cc57600080fd5b600160a060020a0384166000908152600160205260409020548211156103f157600080fd5b600160a060020a038085166000908152600260209081526040808320339094168352929052205482111561042457600080fd5b600160a060020a03841660009081526001602052604090205461044d908363ffffffff6108cd16565b600160a060020a038086166000908152600160205260408082209390935590851681522054610482908363ffffffff6108df16565b600160a060020a038085166000908152600160209081526040808320949094558783168252600281528382203390931682529190915220546104ca908363ffffffff6108cd16565b600160a060020a038086166000818152600260209081526040808320338616845282529182902094909455805186815290519287169391927fddf252ad1be2c89b69c2b068fc378daa952ba7f163c4a11628f55a4df523b3ef929181900390910190a35060019392505050565b6b033b2e3c9fd0803ce800000081565b601281565b600160a060020a033381166000908152600260209081526040808320938616835292905290812054808311156105a957600160a060020a0333811660009081526002602090815260408083209388168352929052908120556105e0565b6105b9818463ffffffff6108cd16565b600160a060020a033381166000908152600260209081526040808320938916835292905220555b600160a060020a0333811660008181526002602090815260408083209489168084529482529182902054825190815291517f8c5be1e5ebec7d5bd14f71427d1e84f3dd0314c0f7b2291e5b200ac8c7c3b9259281900390910190a35060019392505050565b600160a060020a031660009081526001602052604090205490565b60408051808201909152600381527f584f580000000000000000000000000000000000000000000000000000000000602082015281565b600160a060020a0382166000908152600160205260409020548111156106bc57600080fd5b600160a060020a0382166000908152600160205260409020546106e5908263ffffffff6108cd16565b600160a060020a0390921660009081526001602052604090209190915550565b6000600160a060020a038316151561071c57600080fd5b600160a060020a03331660009081526001602052604090205482111561074157600080fd5b600160a060020a03331660009081526001602052604090205461076a908363ffffffff6108cd16565b600160a060020a03338116600090815260016020526040808220939093559085168152205461079f908363ffffffff6108df16565b600160a060020a038085166000818152600160209081526040918290209490945580518681529051919333909316927fddf252ad1be2c89b69c2b068fc378daa952ba7f163c4a11628f55a4df523b3ef92918290030190a350600192915050565b600160a060020a033381166000908152600260209081526040808320938616835292905290812054610838908363ffffffff6108df16565b600160a060020a0333811660008181526002602090815260408083209489168084529482529182902085905581519485529051929391927f8c5be1e5ebec7d5bd14f71427d1e84f3dd0314c0f7b2291e5b200ac8c7c3b9259281900390910190a350600192915050565b600160a060020a03918216600090815260026020908152604080832093909416825291909152205490565b6000828211156108d957fe5b50900390565b6000828201838110156108ee57fe5b93925050505600a165627a7a723058205523f09ccb2217fa56e8436941b28dc640b4daf14a555196dbc71d8879de64dd0029ddf252ad1be2c89b69c2b068fc378daa952ba7f163c4a11628f55a4df523b3ef",
  "source": "pragma solidity ^0.4.23;\n\nimport './SafeMath.sol';\nimport './XOXToken.sol';\nimport './Ownable.sol';\n\ncontract Crowdsale is Ownable {\n  using SafeMath for uint;\n\n  uint constant public SOFT_CAP = 1E24;\n  uint constant private DECIMALS = 1E18;\n  \n  uint public paginationNum = 100;\n\n  uint public countRefund;\n  uint public rate = 136900000000000;\n  uint public start;\n  uint public salesTokens;\n  \n  bool public requireOnce = true;\n\n  address[] public investors;\n  address public multisig;\n  address public proxyMultisig;\n\n  mapping(address => uint) public investments;\n  \n  XOXToken public token;\n\n  struct Stage {\n    uint id;\n    uint totalSupply;\n    uint remainderTokens;\n    uint minInvestment;\n    uint sumInvestment;\n    uint end;\n    uint bonusLessTen;\n    uint bonusMoreTen;\n    uint start;\n  }\n\n    Stage public preICO;\n    Stage public ICO;\n    Stage public postICO;\n\n\n  event TransferWei(address indexed addr, uint amount);\n\n  constructor(uint _startPreICO, uint _startICO, uint _startPostICO, address _reserved) public {\n    require(\n      _startPreICO > now &&\n      _startICO > _startPreICO.add(28 days) &&\n      _startPostICO > _startICO.add(28 days)\n    );\n    require(requireOnce);\n\n    requireOnce = false;\n    multisig = owner;\n    token = new XOXToken(_reserved);\n    start = _startPreICO;\n\n    preICO = Stage({\n      id: 0,\n      totalSupply: 6E24,\n      remainderTokens: 6E24,\n      minInvestment: 1 ether,\n      sumInvestment: 0,\n      end: start.add(28 days),\n      bonusLessTen: 140,\n      bonusMoreTen: 160,\n      start: _startPreICO\n    });\n\n    ICO = Stage({\n      id: 1,\n      totalSupply: 54E24,\n      remainderTokens: 54E24,\n      minInvestment: 0.5 ether,\n      sumInvestment: 0,\n      end: _startICO.add(28 days),\n      bonusLessTen: 0,\n      bonusMoreTen: 140,\n      start: _startICO\n    });\n\n    postICO = Stage({\n      id: 2,\n      totalSupply: 840E24,\n      remainderTokens: 840E24,\n      minInvestment: 0,\n      sumInvestment: 0,\n      end: 0,\n      bonusLessTen: 0,\n      bonusMoreTen: 0,\n      start: _startPostICO\n    });\n  }\n\n  modifier onlyOwnerAndProxyOwner() {\n    require(msg.sender == owner || msg.sender == proxyMultisig);\n    _;\n  }\n  \n  \n  function() public payable {\n    saleTokens();\n  }\n  \n\n  function saleTokens() public payable {\n    Stage storage stageICO = getStage();\n    require(stageICO.id != 2);\n    require(msg.value >= stageICO.minInvestment);\n   \n    uint tokensValue = calculateTokens(msg.value);\n    \n    if (tokensValue <= stageICO.remainderTokens) {\n      uint tokens = bonusSystem(msg.value, stageICO, tokensValue);\n      stageICO.remainderTokens = stageICO.remainderTokens.sub(tokens);\n      addStatisticsAndCalculateVal(tokens, msg.value, msg.sender);\n    } else {\n        calculateTokensLessAvailable(stageICO, msg.value, msg.sender);\n    }\n    withDrawal();\n  }\n\n\n  function bonusSystem(uint _eth, Stage storage _stageNow, uint _tokens) internal view returns(uint) {\n    uint eth = _eth.div(1E18);\n    uint tokens = _tokens;\n    Stage storage stage = _stageNow;\n    if (stage.id == 0) {\n        if (eth < 10) {\n          tokens = tokens.mul(stage.bonusLessTen).div(100);\n        } else if (eth >= 10) {\n          tokens = tokens.mul(stage.bonusMoreTen).div(100);\n        }\n    } else {\n       if (eth < 10) {\n          tokens = tokens;\n       } else if (eth >= 10) {\n          tokens = tokens.mul(stage.bonusMoreTen).div(100);\n       }\n    }\n    return tokens;\n  }\n\n\n  function getValueForBackend(uint _btc, address _sender) public onlyOwnerAndProxyOwner returns(uint) {\n    require(_btc > 0);\n    require(_sender != address(0));\n    require(now > ICO.end);\n    \n    uint tokensValue = calculateTokens(_btc);\n    uint surrender;\n    if (tokensValue <= postICO.remainderTokens) {\n      postICO.remainderTokens = postICO.remainderTokens.sub(tokensValue);\n      surrender = 0;\n    } else {\n        tokensValue = postICO.remainderTokens;\n        postICO.remainderTokens = 0;\n        uint availableWei = tokensValue.mul(rate).div(DECIMALS);\n        uint remainderWei = _btc.sub(availableWei);\n        surrender = remainderWei;\n    }\n    token.transfer(_sender, tokensValue);\n    return surrender;\n  }\n\n\n  function calculateTokensLessAvailable(Stage storage _stageNow, uint _ethValue, address _sender) internal {\n      Stage storage stage = _stageNow;\n      uint tokensValue = stage.remainderTokens;\n      stage.remainderTokens = 0;\n      uint tokens = bonusSystem(msg.value, stage, tokensValue);\n      uint availableWei = tokens.mul(rate).div(DECIMALS);\n      uint remainderWei = _ethValue.sub(availableWei);\n    \n      addStatisticsAndCalculateVal(tokens, availableWei, _sender);\n\n      if (remainderWei > 0) {\n        emit TransferWei(_sender, remainderWei);\n        _sender.transfer(remainderWei);\n      }\n  }\n\n\n  function addStatisticsAndCalculateVal(uint _tokensVal, uint _ethVal, address _sender) internal {\n    if (investments[_sender] == 0) investors.push(_sender);\n      investments[_sender] = investments[_sender].add(_ethVal);\n      salesTokens = salesTokens.add(_tokensVal);\n      token.transfer(_sender, _tokensVal);\n  }\n\n\n  function getStage() internal view returns(Stage storage) {\n    if (now < preICO.end && now >= preICO.start) {\n        return preICO;\n    } else if (ICO.end > now && now >= ICO.start) {\n        return ICO;\n    } else if (now >= postICO.start) {\n        return postICO;\n    } else {\n        revert();\n    }\n  }\n\n\n  function withDrawal() internal {\n    if(salesTokens >= SOFT_CAP) {\n      multisig.transfer(address(this).balance);\n    }\n  }\n\n  function burnTokens() public onlyOwnerAndProxyOwner {\n    require(ICO.end < now);\n    uint remainderTokens = preICO.remainderTokens.add(ICO.remainderTokens);\n    token.burn(this, remainderTokens);\n  }\n\n\n  function calculateTokens(uint _ether) public view returns(uint) {\n    return _ether.mul(DECIMALS).div(rate);\n  }\n    \n\n  function calculateTotal(uint _tokens) public view returns (uint) {\n    return _tokens.mul(rate);\n  }\n  \n  \n  function returnNumberInvestors() public view returns(uint) {\n    return investors.length;\n  }\n    \n\n  function refund() public onlyOwnerAndProxyOwner {\n    require(ICO.end < now && salesTokens < SOFT_CAP);\n    uint limit = countRefund.add(paginationNum);\n\n    for(uint i = countRefund; i < investors.length; i++) {\n      uint value = investments[investors[i]];\n      investments[investors[i]] = 0;\n      investors[i].transfer(value);\n      if (i == limit) break;\n    }\n    countRefund = limit;\n  }\n  \n\n  function setRate(uint _rate) public onlyOwner {\n    require(_rate > 0);\n    rate = _rate.div(10);\n  }\n\n\n  function setMultisig(address _to) public onlyOwner returns(bool) {\n    require(_to != address(0));\n    multisig = _to;\n    return true;\n  }\n\n  function setDate(uint _startPreICO, uint _startICO, uint _startPostICO) public onlyOwner {\n    require(now < start);\n    preICO.start = _startPreICO;\n    ICO.start = _startICO;\n    postICO.start = _startPostICO;\n  }\n\n  function setProxyMultisig(address _to) public onlyOwner returns(bool) {\n    require(_to != address(0));\n    proxyMultisig = _to;\n    return true;\n  }\n    \n}\n",
  "sourcePath": "/Users/maksim/Desktop/xox/xox_t/contracts/Crowdsale.sol",
  "compiler": {
    "name": "solc",
    "version": "0.4.23+commit.124ca40d.Emscripten.clang"
  },
  "schemaVersion": "2.0.0",
  "updatedAt": "2018-05-30T02:09:13.273Z"
}