{
  "contractName": "XOXToken",
  "abi": [
    {
      "constant": true,
      "inputs": [],
      "name": "name",
      "outputs": [
        {
          "name": "",
          "type": "string"
        }
      ],
      "payable": false,
      "stateMutability": "view",
      "type": "function"
    },
    {
      "constant": false,
      "inputs": [
        {
          "name": "_spender",
          "type": "address"
        },
        {
          "name": "_value",
          "type": "uint256"
        }
      ],
      "name": "approve",
      "outputs": [
        {
          "name": "",
          "type": "bool"
        }
      ],
      "payable": false,
      "stateMutability": "nonpayable",
      "type": "function"
    },
    {
      "constant": true,
      "inputs": [],
      "name": "totalSupply",
      "outputs": [
        {
          "name": "",
          "type": "uint256"
        }
      ],
      "payable": false,
      "stateMutability": "view",
      "type": "function"
    },
    {
      "constant": false,
      "inputs": [
        {
          "name": "_from",
          "type": "address"
        },
        {
          "name": "_to",
          "type": "address"
        },
        {
          "name": "_value",
          "type": "uint256"
        }
      ],
      "name": "transferFrom",
      "outputs": [
        {
          "name": "",
          "type": "bool"
        }
      ],
      "payable": false,
      "stateMutability": "nonpayable",
      "type": "function"
    },
    {
      "constant": true,
      "inputs": [],
      "name": "INITIAL_SUPPLY",
      "outputs": [
        {
          "name": "",
          "type": "uint256"
        }
      ],
      "payable": false,
      "stateMutability": "view",
      "type": "function"
    },
    {
      "constant": true,
      "inputs": [],
      "name": "decimals",
      "outputs": [
        {
          "name": "",
          "type": "uint32"
        }
      ],
      "payable": false,
      "stateMutability": "view",
      "type": "function"
    },
    {
      "constant": false,
      "inputs": [
        {
          "name": "_value",
          "type": "uint256"
        }
      ],
      "name": "burn",
      "outputs": [],
      "payable": false,
      "stateMutability": "nonpayable",
      "type": "function"
    },
    {
      "constant": false,
      "inputs": [
        {
          "name": "_spender",
          "type": "address"
        },
        {
          "name": "_subtractedValue",
          "type": "uint256"
        }
      ],
      "name": "decreaseApproval",
      "outputs": [
        {
          "name": "",
          "type": "bool"
        }
      ],
      "payable": false,
      "stateMutability": "nonpayable",
      "type": "function"
    },
    {
      "constant": true,
      "inputs": [
        {
          "name": "_owner",
          "type": "address"
        }
      ],
      "name": "balanceOf",
      "outputs": [
        {
          "name": "balance",
          "type": "uint256"
        }
      ],
      "payable": false,
      "stateMutability": "view",
      "type": "function"
    },
    {
      "constant": true,
      "inputs": [],
      "name": "symbol",
      "outputs": [
        {
          "name": "",
          "type": "string"
        }
      ],
      "payable": false,
      "stateMutability": "view",
      "type": "function"
    },
    {
      "constant": false,
      "inputs": [
        {
          "name": "_to",
          "type": "address"
        },
        {
          "name": "_value",
          "type": "uint256"
        }
      ],
      "name": "transfer",
      "outputs": [
        {
          "name": "",
          "type": "bool"
        }
      ],
      "payable": false,
      "stateMutability": "nonpayable",
      "type": "function"
    },
    {
      "constant": false,
      "inputs": [
        {
          "name": "_spender",
          "type": "address"
        },
        {
          "name": "_addedValue",
          "type": "uint256"
        }
      ],
      "name": "increaseApproval",
      "outputs": [
        {
          "name": "",
          "type": "bool"
        }
      ],
      "payable": false,
      "stateMutability": "nonpayable",
      "type": "function"
    },
    {
      "constant": true,
      "inputs": [
        {
          "name": "_owner",
          "type": "address"
        },
        {
          "name": "_spender",
          "type": "address"
        }
      ],
      "name": "allowance",
      "outputs": [
        {
          "name": "",
          "type": "uint256"
        }
      ],
      "payable": false,
      "stateMutability": "view",
      "type": "function"
    },
    {
      "inputs": [
        {
          "name": "_reserved",
          "type": "address"
        }
      ],
      "payable": false,
      "stateMutability": "nonpayable",
      "type": "constructor"
    },
    {
      "anonymous": false,
      "inputs": [
        {
          "indexed": true,
          "name": "burner",
          "type": "address"
        },
        {
          "indexed": false,
          "name": "value",
          "type": "uint256"
        }
      ],
      "name": "Burn",
      "type": "event"
    },
    {
      "anonymous": false,
      "inputs": [
        {
          "indexed": true,
          "name": "owner",
          "type": "address"
        },
        {
          "indexed": true,
          "name": "spender",
          "type": "address"
        },
        {
          "indexed": false,
          "name": "value",
          "type": "uint256"
        }
      ],
      "name": "Approval",
      "type": "event"
    },
    {
      "anonymous": false,
      "inputs": [
        {
          "indexed": true,
          "name": "from",
          "type": "address"
        },
        {
          "indexed": true,
          "name": "to",
          "type": "address"
        },
        {
          "indexed": false,
          "name": "value",
          "type": "uint256"
        }
      ],
      "name": "Transfer",
      "type": "event"
    }
  ],
  "bytecode": "0x608060405234801561001057600080fd5b50604051602080610a708339810160405251600160a060020a038116151561003757600080fd5b600160a060020a0333811660008181526001602090815260408083206b02e87669c308736a04000000815594861683528083206a52b7d2dcc80cd2e4000000905583835293548451908152935192939192600080516020610a508339815191529281900390910190a3600160a060020a03811660008181526001602090815260408083205481519081529051600080516020610a50833981519152929181900390910190a350610964806100ec6000396000f3006080604052600436106100c45763ffffffff7c010000000000000000000000000000000000000000000000000000000060003504166306fdde0381146100c9578063095ea7b31461015357806318160ddd1461018b57806323b872dd146101b25780632ff2e9dc146101dc578063313ce567146101f157806342966c681461021f578063661884631461023957806370a082311461025d57806395d89b411461027e578063a9059cbb14610293578063d73dd623146102b7578063dd62ed3e146102db575b600080fd5b3480156100d557600080fd5b506100de610302565b6040805160208082528351818301528351919283929083019185019080838360005b83811015610118578181015183820152602001610100565b50505050905090810190601f1680156101455780820380516001836020036101000a031916815260200191505b509250505060405180910390f35b34801561015f57600080fd5b50610177600160a060020a0360043516602435610339565b604080519115158252519081900360200190f35b34801561019757600080fd5b506101a06103a3565b60408051918252519081900360200190f35b3480156101be57600080fd5b50610177600160a060020a03600435811690602435166044356103a9565b3480156101e857600080fd5b506101a061052b565b3480156101fd57600080fd5b5061020661053b565b6040805163ffffffff9092168252519081900360200190f35b34801561022b57600080fd5b50610237600435610540565b005b34801561024557600080fd5b50610177600160a060020a03600435166024356105fd565b34801561026957600080fd5b506101a0600160a060020a03600435166106f6565b34801561028a57600080fd5b506100de610711565b34801561029f57600080fd5b50610177600160a060020a0360043516602435610748565b3480156102c357600080fd5b50610177600160a060020a0360043516602435610843565b3480156102e757600080fd5b506101a0600160a060020a03600435811690602435166108e5565b60408051808201909152600981527f584f5820546f6b656e0000000000000000000000000000000000000000000000602082015281565b600160a060020a03338116600081815260026020908152604080832094871680845294825280832086905580518681529051929493927f8c5be1e5ebec7d5bd14f71427d1e84f3dd0314c0f7b2291e5b200ac8c7c3b925929181900390910190a350600192915050565b60005481565b6000600160a060020a03831615156103c057600080fd5b600160a060020a0384166000908152600160205260409020548211156103e557600080fd5b600160a060020a038085166000908152600260209081526040808320339094168352929052205482111561041857600080fd5b600160a060020a038416600090815260016020526040902054610441908363ffffffff61091016565b600160a060020a038086166000908152600160205260408082209390935590851681522054610476908363ffffffff61092216565b600160a060020a038085166000908152600160209081526040808320949094558783168252600281528382203390931682529190915220546104be908363ffffffff61091016565b600160a060020a038086166000818152600260209081526040808320338616845282529182902094909455805186815290519287169391927fddf252ad1be2c89b69c2b068fc378daa952ba7f163c4a11628f55a4df523b3ef929181900390910190a35060019392505050565b6b033b2e3c9fd0803ce800000081565b601281565b600160a060020a03331660009081526001602052604081205482111561056557600080fd5b5033600160a060020a03811660009081526001602052604090205461058a9083610910565b600160a060020a038216600090815260016020526040812091909155546105b7908363ffffffff61091016565b600055604080518381529051600160a060020a038316917fcc16f5dbb4873280815c1ee09dbd06736cffcc184412cf7a71a0fdb75d397ca5919081900360200190a25050565b600160a060020a0333811660009081526002602090815260408083209386168352929052908120548083111561065a57600160a060020a033381166000908152600260209081526040808320938816835292905290812055610691565b61066a818463ffffffff61091016565b600160a060020a033381166000908152600260209081526040808320938916835292905220555b600160a060020a0333811660008181526002602090815260408083209489168084529482529182902054825190815291517f8c5be1e5ebec7d5bd14f71427d1e84f3dd0314c0f7b2291e5b200ac8c7c3b9259281900390910190a35060019392505050565b600160a060020a031660009081526001602052604090205490565b60408051808201909152600381527f584f580000000000000000000000000000000000000000000000000000000000602082015281565b6000600160a060020a038316151561075f57600080fd5b600160a060020a03331660009081526001602052604090205482111561078457600080fd5b600160a060020a0333166000908152600160205260409020546107ad908363ffffffff61091016565b600160a060020a0333811660009081526001602052604080822093909355908516815220546107e2908363ffffffff61092216565b600160a060020a038085166000818152600160209081526040918290209490945580518681529051919333909316927fddf252ad1be2c89b69c2b068fc378daa952ba7f163c4a11628f55a4df523b3ef92918290030190a350600192915050565b600160a060020a03338116600090815260026020908152604080832093861683529290529081205461087b908363ffffffff61092216565b600160a060020a0333811660008181526002602090815260408083209489168084529482529182902085905581519485529051929391927f8c5be1e5ebec7d5bd14f71427d1e84f3dd0314c0f7b2291e5b200ac8c7c3b9259281900390910190a350600192915050565b600160a060020a03918216600090815260026020908152604080832093909416825291909152205490565b60008282111561091c57fe5b50900390565b60008282018381101561093157fe5b93925050505600a165627a7a723058202c1e0d4e64a6aa4d8ec0218846a3b425a6d610f0b38b3cff1eb8f46d2473cb590029ddf252ad1be2c89b69c2b068fc378daa952ba7f163c4a11628f55a4df523b3ef",
  "source": "pragma solidity ^0.4.23;\n\nimport './BurnableToken.sol';\nimport './StandardToken.sol';\n\ncontract XOXToken is BurnableToken, StandardToken {\n  string public constant name = \"XOX Token\";\n  string public constant symbol = \"XOX\";\n  uint32 public constant decimals = 18;\n  uint256 public constant INITIAL_SUPPLY = 1000000000 * (10 ** uint256(decimals)); \n\n\n\n  constructor(address _reserved) public {\n        require(_reserved != address(0));\n        balances[msg.sender] = 900000000 * (10 ** uint256(decimals));\n        balances[_reserved] = 100000000 * (10 ** uint256(decimals));\n        emit Transfer(0x0, msg.sender, balances[msg.sender]);\n        emit Transfer(0x0, _reserved, balances[_reserved]);\n    }\n}\n",
  "sourcePath": "/Users/maksim/Desktop/xox/xox_t/contracts/XOXToken.sol",
  "compiler": {
    "name": "solc",
    "version": "0.4.23+commit.124ca40d.Emscripten.clang"
  },
  "schemaVersion": "2.0.0",
  "updatedAt": "2018-05-21T08:13:29.361Z"
}