{
  "contractName": "XOXToken",
  "abi": [
    {
      "constant": true,
      "inputs": [],
      "name": "name",
      "outputs": [
        {
          "name": "",
          "type": "string"
        }
      ],
      "payable": false,
      "stateMutability": "view",
      "type": "function"
    },
    {
      "constant": false,
      "inputs": [
        {
          "name": "_spender",
          "type": "address"
        },
        {
          "name": "_value",
          "type": "uint256"
        }
      ],
      "name": "approve",
      "outputs": [
        {
          "name": "",
          "type": "bool"
        }
      ],
      "payable": false,
      "stateMutability": "nonpayable",
      "type": "function"
    },
    {
      "constant": true,
      "inputs": [],
      "name": "totalSupply",
      "outputs": [
        {
          "name": "",
          "type": "uint256"
        }
      ],
      "payable": false,
      "stateMutability": "view",
      "type": "function"
    },
    {
      "constant": false,
      "inputs": [
        {
          "name": "_from",
          "type": "address"
        },
        {
          "name": "_to",
          "type": "address"
        },
        {
          "name": "_value",
          "type": "uint256"
        }
      ],
      "name": "transferFrom",
      "outputs": [
        {
          "name": "",
          "type": "bool"
        }
      ],
      "payable": false,
      "stateMutability": "nonpayable",
      "type": "function"
    },
    {
      "constant": true,
      "inputs": [],
      "name": "INITIAL_SUPPLY",
      "outputs": [
        {
          "name": "",
          "type": "uint256"
        }
      ],
      "payable": false,
      "stateMutability": "view",
      "type": "function"
    },
    {
      "constant": true,
      "inputs": [],
      "name": "decimals",
      "outputs": [
        {
          "name": "",
          "type": "uint32"
        }
      ],
      "payable": false,
      "stateMutability": "view",
      "type": "function"
    },
    {
      "constant": false,
      "inputs": [
        {
          "name": "_spender",
          "type": "address"
        },
        {
          "name": "_subtractedValue",
          "type": "uint256"
        }
      ],
      "name": "decreaseApproval",
      "outputs": [
        {
          "name": "",
          "type": "bool"
        }
      ],
      "payable": false,
      "stateMutability": "nonpayable",
      "type": "function"
    },
    {
      "constant": true,
      "inputs": [
        {
          "name": "_owner",
          "type": "address"
        }
      ],
      "name": "balanceOf",
      "outputs": [
        {
          "name": "balance",
          "type": "uint256"
        }
      ],
      "payable": false,
      "stateMutability": "view",
      "type": "function"
    },
    {
      "constant": true,
      "inputs": [],
      "name": "symbol",
      "outputs": [
        {
          "name": "",
          "type": "string"
        }
      ],
      "payable": false,
      "stateMutability": "view",
      "type": "function"
    },
    {
      "constant": false,
      "inputs": [
        {
          "name": "_crowdsale",
          "type": "address"
        },
        {
          "name": "_tokens",
          "type": "uint256"
        }
      ],
      "name": "burn",
      "outputs": [],
      "payable": false,
      "stateMutability": "nonpayable",
      "type": "function"
    },
    {
      "constant": false,
      "inputs": [
        {
          "name": "_to",
          "type": "address"
        },
        {
          "name": "_value",
          "type": "uint256"
        }
      ],
      "name": "transfer",
      "outputs": [
        {
          "name": "",
          "type": "bool"
        }
      ],
      "payable": false,
      "stateMutability": "nonpayable",
      "type": "function"
    },
    {
      "constant": false,
      "inputs": [
        {
          "name": "_spender",
          "type": "address"
        },
        {
          "name": "_addedValue",
          "type": "uint256"
        }
      ],
      "name": "increaseApproval",
      "outputs": [
        {
          "name": "",
          "type": "bool"
        }
      ],
      "payable": false,
      "stateMutability": "nonpayable",
      "type": "function"
    },
    {
      "constant": true,
      "inputs": [
        {
          "name": "_owner",
          "type": "address"
        },
        {
          "name": "_spender",
          "type": "address"
        }
      ],
      "name": "allowance",
      "outputs": [
        {
          "name": "",
          "type": "uint256"
        }
      ],
      "payable": false,
      "stateMutability": "view",
      "type": "function"
    },
    {
      "inputs": [
        {
          "name": "_reserved",
          "type": "address"
        }
      ],
      "payable": false,
      "stateMutability": "nonpayable",
      "type": "constructor"
    },
    {
      "anonymous": false,
      "inputs": [
        {
          "indexed": true,
          "name": "owner",
          "type": "address"
        },
        {
          "indexed": true,
          "name": "spender",
          "type": "address"
        },
        {
          "indexed": false,
          "name": "value",
          "type": "uint256"
        }
      ],
      "name": "Approval",
      "type": "event"
    },
    {
      "anonymous": false,
      "inputs": [
        {
          "indexed": true,
          "name": "from",
          "type": "address"
        },
        {
          "indexed": true,
          "name": "to",
          "type": "address"
        },
        {
          "indexed": false,
          "name": "value",
          "type": "uint256"
        }
      ],
      "name": "Transfer",
      "type": "event"
    }
  ],
  "bytecode": "0x608060405234801561001057600080fd5b50604051602080610a2d8339810160405251600160a060020a038116151561003757600080fd5b600160a060020a0333811660008181526001602090815260408083206b02e87669c308736a04000000815594861683528083206a52b7d2dcc80cd2e4000000905583835293548451908152935192939192600080516020610a0d8339815191529281900390910190a3600160a060020a03811660008181526001602090815260408083205481519081529051600080516020610a0d833981519152929181900390910190a350610921806100ec6000396000f3006080604052600436106100c45763ffffffff7c010000000000000000000000000000000000000000000000000000000060003504166306fdde0381146100c9578063095ea7b31461015357806318160ddd1461018b57806323b872dd146101b25780632ff2e9dc146101dc578063313ce567146101f1578063661884631461021f57806370a082311461024357806395d89b41146102645780639dc29fac14610279578063a9059cbb1461029f578063d73dd623146102c3578063dd62ed3e146102e7575b600080fd5b3480156100d557600080fd5b506100de61030e565b6040805160208082528351818301528351919283929083019185019080838360005b83811015610118578181015183820152602001610100565b50505050905090810190601f1680156101455780820380516001836020036101000a031916815260200191505b509250505060405180910390f35b34801561015f57600080fd5b50610177600160a060020a0360043516602435610345565b604080519115158252519081900360200190f35b34801561019757600080fd5b506101a06103af565b60408051918252519081900360200190f35b3480156101be57600080fd5b50610177600160a060020a03600435811690602435166044356103b5565b3480156101e857600080fd5b506101a0610537565b3480156101fd57600080fd5b50610206610547565b6040805163ffffffff9092168252519081900360200190f35b34801561022b57600080fd5b50610177600160a060020a036004351660243561054c565b34801561024f57600080fd5b506101a0600160a060020a0360043516610645565b34801561027057600080fd5b506100de610660565b34801561028557600080fd5b5061029d600160a060020a0360043516602435610697565b005b3480156102ab57600080fd5b50610177600160a060020a0360043516602435610705565b3480156102cf57600080fd5b50610177600160a060020a0360043516602435610800565b3480156102f357600080fd5b506101a0600160a060020a03600435811690602435166108a2565b60408051808201909152600981527f584f5820546f6b656e0000000000000000000000000000000000000000000000602082015281565b600160a060020a03338116600081815260026020908152604080832094871680845294825280832086905580518681529051929493927f8c5be1e5ebec7d5bd14f71427d1e84f3dd0314c0f7b2291e5b200ac8c7c3b925929181900390910190a350600192915050565b60005481565b6000600160a060020a03831615156103cc57600080fd5b600160a060020a0384166000908152600160205260409020548211156103f157600080fd5b600160a060020a038085166000908152600260209081526040808320339094168352929052205482111561042457600080fd5b600160a060020a03841660009081526001602052604090205461044d908363ffffffff6108cd16565b600160a060020a038086166000908152600160205260408082209390935590851681522054610482908363ffffffff6108df16565b600160a060020a038085166000908152600160209081526040808320949094558783168252600281528382203390931682529190915220546104ca908363ffffffff6108cd16565b600160a060020a038086166000818152600260209081526040808320338616845282529182902094909455805186815290519287169391927fddf252ad1be2c89b69c2b068fc378daa952ba7f163c4a11628f55a4df523b3ef929181900390910190a35060019392505050565b6b033b2e3c9fd0803ce800000081565b601281565b600160a060020a033381166000908152600260209081526040808320938616835292905290812054808311156105a957600160a060020a0333811660009081526002602090815260408083209388168352929052908120556105e0565b6105b9818463ffffffff6108cd16565b600160a060020a033381166000908152600260209081526040808320938916835292905220555b600160a060020a0333811660008181526002602090815260408083209489168084529482529182902054825190815291517f8c5be1e5ebec7d5bd14f71427d1e84f3dd0314c0f7b2291e5b200ac8c7c3b9259281900390910190a35060019392505050565b600160a060020a031660009081526001602052604090205490565b60408051808201909152600381527f584f580000000000000000000000000000000000000000000000000000000000602082015281565b600160a060020a0382166000908152600160205260409020548111156106bc57600080fd5b600160a060020a0382166000908152600160205260409020546106e5908263ffffffff6108cd16565b600160a060020a0390921660009081526001602052604090209190915550565b6000600160a060020a038316151561071c57600080fd5b600160a060020a03331660009081526001602052604090205482111561074157600080fd5b600160a060020a03331660009081526001602052604090205461076a908363ffffffff6108cd16565b600160a060020a03338116600090815260016020526040808220939093559085168152205461079f908363ffffffff6108df16565b600160a060020a038085166000818152600160209081526040918290209490945580518681529051919333909316927fddf252ad1be2c89b69c2b068fc378daa952ba7f163c4a11628f55a4df523b3ef92918290030190a350600192915050565b600160a060020a033381166000908152600260209081526040808320938616835292905290812054610838908363ffffffff6108df16565b600160a060020a0333811660008181526002602090815260408083209489168084529482529182902085905581519485529051929391927f8c5be1e5ebec7d5bd14f71427d1e84f3dd0314c0f7b2291e5b200ac8c7c3b9259281900390910190a350600192915050565b600160a060020a03918216600090815260026020908152604080832093909416825291909152205490565b6000828211156108d957fe5b50900390565b6000828201838110156108ee57fe5b93925050505600a165627a7a723058205523f09ccb2217fa56e8436941b28dc640b4daf14a555196dbc71d8879de64dd0029ddf252ad1be2c89b69c2b068fc378daa952ba7f163c4a11628f55a4df523b3ef",
  "source": "pragma solidity ^0.4.23;\n\nimport './BurnableToken.sol';\nimport './StandardToken.sol';\n\ncontract XOXToken is BurnableToken, StandardToken {\n  string public constant name = \"XOX Token\";\n  string public constant symbol = \"XOX\";\n  uint32 public constant decimals = 18;\n  uint256 public constant INITIAL_SUPPLY = 1000000000 * (10 ** uint256(decimals)); \n\n\n\n  constructor(address _reserved) public {\n        require(_reserved != address(0));\n        balances[msg.sender] = 900000000 * (10 ** uint256(decimals));\n        balances[_reserved] = 100000000 * (10 ** uint256(decimals));\n        emit Transfer(0x0, msg.sender, balances[msg.sender]);\n        emit Transfer(0x0, _reserved, balances[_reserved]);\n    }\n}\n",
  "sourcePath": "/Users/maksim/Desktop/xox/xox_t/contracts/XOXToken.sol",
  "compiler": {
    "name": "solc",
    "version": "0.4.23+commit.124ca40d.Emscripten.clang"
  },
  "schemaVersion": "2.0.0",
  "updatedAt": "2018-05-30T02:09:11.704Z"
}